:020000041000EA
:1000000000B5324B212058609868022188439860DF
:10001000D860186158612E4B002199600221596106
:100020000121F02299502B49196001219960352056
:1000300000F044F80222904214D00621196600F024
:1000400034F8196E01211966002018661A6600F04E
:100050002CF8196E196E196E052000F02FF8012189
:100060000842F9D1002199601B49196000215960AB
:100070001A491B48016001219960EB211966A021F2
:10008000196600F012F800219960164914480160C1
:100090000121996001BC002800D000471248134993
:1000A000086003C880F30888084703B5996A0420EC
:1000B0000142FBD001200142F8D103BD02B5186610
:1000C0001866FFF7F2FF186E186E02BD00000240BE
:1000D000000000180000070000035F00212200005C
:1000E000F4000018222000A00001001008ED00E03C
:1000F00000000000000000000000000074B24E7A12
:1001000000200420F7010010C3010010C5010010F9
:10011000C1010010C1010010C1010010C101001097
:10012000C1010010C1010010C1010010C701001081
:10013000C1010010C1010010C9010010CB01001065
:10014000CD010010CD010010CD010010CD01001037
:10015000CD010010CD010010CD010010CD01001027
:10016000CD010010CD010010CD010010CD01001017
:10017000CD010010CD010010CD010010CD01001007
:10018000CD010010CD010010CD010010CD010010F7
:10019000CD010010CD010010CD010010CD010010E7
:1001A000CD010010CD010010CD010010CD010010D7
:1001B000CD010010CD010010CD010010CD010010C7
:1001C00000BE00BE00BE00BE00BE00BEEFF3058054
:1001D000103800BEF2EB88717417001090170010F1
:1001E0003802001090A31AE71E481F49086006C88D
:1001F00081F3088810471D480068002801D019487D
:10020000F3E70DA40ECC002902D000F012F8F9E7B4
:100210001749184A002000E001C19142FCD116495B
:100220008847164988471649884700BEFDE701C937
:1002300001C29A42FBD3704790170010C000002003
:1002400088030020581A0010000004200000042039
:10025000581A0010001004200010042000000000B4
:10026000704700000000000008ED00E0000000D032
:10027000880300207C080020B512001071030010D4
:10028000AD120010F8B5C04606480749091A8B1090
:10029000C90FC91810B5491003D0044B002B00D06A
:1002A000984710BD8803002088030020000000004C
:1002B000054B10B5002B03D00449054800E000BFF2
:1002C000FFF7E2FF10BDC04600000000400800201C
:1002D0009C1600100023202170B51E4A84B00092A5
:1002E00001931D4A13688B43136020221B490B683E
:1002F0001A42FCD005228026194B1A4C1A601A4B60
:10030000B6041A4D1E602660266000F035F8009A8B
:10031000019B801859410290039100F02DF8029A38
:10032000039B8B42F9D801D18242F6D82E6000F0AF
:1003300023F8009A019B801859410290039100F024
:100340001BF8029A039B8B42F9D8DDD18242F6D882
:10035000DAE7C04690D0030000C0004008C000406B
:10036000CC400140140000D0240000D0180000D080
:1003700010B5FFF7AFFFC046044B002019680023FB
:1003800010B5034C22688018594110BD0840054043
:100390000C4005400FB400B5084883B001F0C8F820
:1003A000049B002B07D005A91800019100F064FF01
:1003B000034801F0BDF8012000F076FF9C16001004
:1003C000AC16001070B5EFF3108C72B60D4D2B68A3
:1003D000002BFCD0BFF35F8F0724CB08C618C05C8E
:1003E00001230C40A3401C000440034207D11843E2
:1003F0003070BFF35F8F2C608CF3108870BD1000DD
:10040000FFF7C8FF2C0100D0044A1078431CDBB270
:10041000172B00D9102313707047C04638030020F3
:100420000021044B044ABFF35F8F02C39342FAD109
:100430007047C046000100D0800100D0054B064A3D
:100440001360064A136053609360D3601361536175
:10045000936170478080808000E400E004E400E065
:100460001F2318401E3B8340002905D0C021044AA9
:100470004900535013607047802201498B50FAE7BE
:1004800000E100E070B50D00EFF3108672B60F4A80
:100490001368002BFCD0BFF35F8F0D4B10309B68AF
:1004A00084001B590B4A934203D09D4201D000F0B7
:1004B00013FD074B9B681D51BFF35F8FBFF35F8F29
:1004C0000022024B1A6086F3108870BD240100D010
:1004D00000ED00E0CD010010024B9C466144890014
:1004E000016070474000003470B5114C114DAC42B2
:1004F0000FD2FF262368002B0CD0FFF785FF0100E9
:100500002000FFF7E9FFA680BFF35F8F0834AC42FD
:10051000F0D370BDFFF778FF01002000FFF7DCFF8C
:100520002671BFF35F8F0834AC42E3D3F1E7C046D6
:1005300080030020880300200A4B1968EFF3108025
:1005400072B60A68002AFCD0BFF35F8F1B68BFF346
:100550005F8F00221A6080F3108840BF00200021C6
:100560007047C04674080020F0B5DE4657464E4638
:100570004546E0B587B0EFF30583032201251A4015
:10058000954091008846A946B34B03925C58B34B03
:100590001D60B34B04934B46B24843630823E55EAA
:1005A000002D37DAA3881BB2002B00DBADE0A37966
:1005B000002B00D0EEE00823E05E002820DB4300A3
:1005C00062691B18DB00D3189E68DD68731C00D1BC
:1005D00011E1A44801004144826A0B69B71A9B1AD1
:1005E0009F4215D30123026A039883401A420FD019
:1005F0009C4800F0C9FA8D4202DCCCD18642CAD9AF
:1006000040BF07B0F0BCBB46B246A946A046F0BD0D
:100610000E61EDE762696B0092465B19DB009A445C
:1006200053469E68DF6800F0AFFA8F42BADC00D113
:1006300003E1002F00DAE8E05246534652691B6995
:100640009346049A934200D1D9E052460821605E55
:100650005288000459461043984700900191009930
:10066000019A0B001000134300D1CEE013000A00E2
:10067000B61A9F41002806DB7A4800F085FA009EF2
:10068000019F36184F4153469E60DF6000229A5EFC
:10069000002A00DA86E7530099186069C9004118FA
:1006A00002938B68C9689B46B94200DD7AE702D1A4
:1006B000B34200D976E708239C46A44405956546D5
:1006C0002281A446029B2C0006E053009918C90021
:1006D00041188D68C968AB469B18DB00C318B94246
:1006E00006DC00D1B3E01C000023E25E002AECDA55
:1006F000230064469C4653461A806346059D1D8030
:10070000A3881BB2002B00DA51E72269EFF31081B6
:1007100072B61368002BFCD0BFF35F8F0123A7884C
:100720005B42A3803FB22369BFF35F8F00221A6050
:1007300081F31088002F00DA39E723000833220004
:100740009A4666697B00DB19DB00F318996850460E
:100750008C460824115FDD68002910DB029306E057
:10076000AB4244D00023E15E2000002906DB4C00B0
:100770006418E4003419E368AB42F1DD029B0780A2
:1007800000201F5E1980002FDCDA1400A379002BF3
:1007900000D110E70023A37126000823E15E08368C
:1007A0004B1C00D12CE70800A246656902E03E0020
:1007B0004B1C1AD04B005B18DB00EF180A008C466C
:1007C000E95E7B881BB2002BF1DA01235B42DC1768
:1007D000BB60FC60824205D0534631801B893B8060
:1007E00053461A8160464B1CE4D15446E5E6A368A3
:1007F0006345B7D9C2E76B1C00D0EAE6F8E65B4672
:1008000058461B69984700281BD153461B8822690C
:100810002381EFF3108372B611680029FCD0BFF377
:100820005F8F514662880A8022696580BFF35F8FBF
:100830000021116083F31088B4E6864200D8F8E600
:10084000B0E65B461A685B680092019307E7B34520
:1008500000D848E74CE7C046580800203C700540E7
:10086000690500100040054070B52E4C2569002D2B
:1008700004D00A212C48FFF72FFE70BD2B4E032118
:10088000300000F077F9E660FFF7BEFD284B032249
:100890009C46D02322701B061B6801216370254BE8
:1008A0006044A3600F23800020610220638063699D
:1008B0004942A18019800231198647311D8358525F
:1008C00018315A5275325C399952183201319952A5
:1008D00018320131995218320131995208351832C3
:1008E0009D52023118329952183201319952183200
:1008F000013199521832013199521832013199520D
:100900001832013199520C4B0C49DC6001303562D0
:10091000FFF7B8FD01210320FFF7A2FD084B1D6082
:10092000A7E7C0463C0300207408002000400540B3
:1009300040000034FFFF1000580800206905001037
:100940003860054070B501000469EFF3108C72B691
:1009500020680028FCD0BFF35F8F02200D5E4C6939
:1009600068004019C00024180869002D36DB26886D
:100970004E80BFF35F8F002606608CF31088E36023
:1009800063880498013320615B0405985B0CA260C6
:1009900060611A1C002B1FD093B228046280184398
:1009A0000A69EFF3108C72B61368002BFCD0BFF30A
:1009B0005F8F8B8823808D800B69BFF35F8F002250
:1009C0001A608CF310880B7801329A40CB68084982
:1009D0008C4663441A6070BD0122DDE7BFF35F8F70
:1009E000002303608CF3108801204042F3E7C046E7
:1009F0003C20000010B543890A1493421ADD5300CD
:100A00009B184269DB00D3180469EFF3108C72B6AF
:100A10002268002AFCD0BFF35F8F5A88090494B281
:100A2000090C8A4208D00369BFF35F8F00221A6065
:100A30008CF31088002010BD8022120214435C80C9
:100A4000012302698371BFF35F8F002111608CF372
:100A50001088044902788C469340C26801206244A1
:100A60001360E8E73C200000F0B557464E46DE46EE
:100A70004546E0B506000F0085B0EFF305839946C3
:100A80008B46002B12D0384900204B6ABB4206D35C
:100A90008A6ADB1B591E8B41B2424041184305B0A4
:100AA000F0BCBB46B246A946A046F0BD2F4B9A46C5
:100AB000DB68984653461B784046039300F064F881
:100AC0004246039B040004339B009B580D001B1AF5
:100AD00039003000001BA941894510DC0DD020BF32
:100AE000214A0020536A5B45D9D3926ADB1B591E09
:100AF0008B41B24240411843D1E78342EFD900F025
:100B00004BF832003B00121A8B41002B1ADB0023FA
:100B10000193174B3200009350463B00FFF712FF42
:100B2000011E0FDD104B5A6A5A451BD39B6AB34214
:100B300016D35046FFF75EFF0B4A0020536A5B4511
:100B4000ADD3D2E7084A0020536A5B45A7D3002003
:100B5000926ADB1BB24240415A1E934118439EE702
:100B60005A45E6D120BFE4E7004005403C030020A1
:100B70003905001010B5024A0248FFF723FC10BDEA
:100B8000B0160010080800200300416A0A00986AA5
:100B9000596A8A42FAD17047034B596A0A00986A27
:100BA000596A9142FAD1704700400540F8B5DE46D7
:100BB0004E4657464546E0B58B4605000A99180053
:100BC000160000F067FA0A9B6C001F02324B641992
:100BD0009C46A4006444636881469F4200D96760D4
:100BE0002B1FDBB29846012B30D9C02380229B01FA
:100BF000E31812011A60294BAD0059599A46002991
:100C00001BD17301E026226853401E4080234246D8
:100C10005B01E3181E60012A30D9802380229B01EA
:100C2000E31812011A6053464A4667605A51F0BCF5
:100C3000BB46B246A946A046F8BD586900F02AFA5C
:100C4000013043001B18033BFDD2DAE75B46012B62
:100C5000CBD1C02303229B01E3181A60023AA36898
:100C60001A42FCD07301E0262268AD0053401E40BA
:100C700080230A4A5B019246E3181E605A462168A7
:100C8000514003220A401A6001225B469A40A36841
:100C90001A42FCD0C1E7C046008000400C0800208A
:100CA000F0B546464F46D646C0B51F00344B44000B
:100CB0009C462418A4006444636888461600FF2BF1
:100CC00002D880235B006360031FDBB29A46012BCE
:100CD00030D9C02380229B01E31812011A60294BEE
:100CE00085005959994600291BD17301E0262268D5
:100CF00053401E40802352465B01E3181E60012AC8
:100D000030D9802380229B01E31812011A608023CE
:100D10005B0063604B465F51E0BCBA46B146A846F3
:100D2000F0BD586900F0B6F9013043001B18033BD1
:100D3000FDD2DAE74346012BCBD1C02303229B012E
:100D4000E3181A60023AA3681A42FCD07301E02645
:100D50002268850053401E4080230A4A5B01914669
:100D6000E3181E6042462168514003220A401A607F
:100D7000012342469340A2681342FCD0C1E7C0461B
:100D8000008000400C080020014B8000C0587047D4
:100D90000C080020F8B5040021481E0017000D00C3
:100DA00000F078F90100380000F074F9069B360471
:100DB0001B031E432368002B20DB1A4B1A49E31840
:100DC0005A1E93418022920194465B421B0B174AA4
:100DD0001B0363441360164A13601F000A6897439D
:100DE000FBD1144B2560E2182123A0601360236817
:100DF000002BFCDA0823E6601360F8BD3F2322686D
:100E00001340AB42D9D1A3681B051B0D8342D4D13B
:100E1000EE22E368D2021340B342CED1EDE7C046E2
:100E2000001BB7000040FDBF08C0004000E00040CC
:100E300000F00040043000008023024A9B000B4376
:100E4000D362704700800540002310B50100988AE6
:100E50001B8B984710BDC046162310B5010018889B
:100E600002331B88984710BDF8B54746CE4680B57B
:100E70000F1E18D0142399460433040000250126C0
:100E800098464B461888434621681B88984701C4FA
:100E9000431E984101350640AF42F2D13000C0BC3C
:100EA000B946B046F8BD0126F8E7C046AA23064A6F
:100EB0001B0113608D235B00D3600449044B196050
:100EC0005368002BFCDA70470040024000B0FA0083
:100ED000006002407047C04610B50148FFF75AFA5B
:100EE000D416001070B5074D074EB54209D2002444
:100EF000013E761BB60808CD984723000134B34263
:100F0000F9D170BD5816001094160010054B064A12
:100F100006491A60064A074B1A6010000B6898438E
:100F2000FBD1704700E00040BFCDFBFE08C0004091
:100F3000FE7F3C0000F00040044BDB6C002B03D133
:100F40008022034BD2021A607047C0460000115045
:100F50004C201150044A054B1A60054A1368DB0106
:100F60008033FBD17047C046FFFFFF0100F0004017
:100F700008C000404022034B9A675A671A67DA6636
:100F80007047C04600F0014010B5FFF749FA10BDA8
:100F900070B5044D044CA968C022200000F05EF931
:100FA000AC6070BD00ED00E000000020002310B533
:100FB000294C82B0A367FFF779FF0122274B1A6003
:100FC000636C012BFCD10322254B1A60224A936BE0
:100FD000012BFCD1013300930121224A2248043322
:100FE000FFF7D8FE052301210093204A2048FFF790
:100FF000D1FE0022022104201E4BFFF751FE0022E9
:10100000012105201C4BFFF74BFE00220021072089
:101010001A4BFFF745FE002200210820174BFFF76F
:101020003FFE8023DB000093002200210920134BA8
:10103000FFF7BCFD0022104B00210620FFF730FE19
:101040000420FFF7A1FE0E4900F024F80100002063
:10105000FFF7F2FE02B010BD008000403CB000403F
:1010600030B00040002F685900800240008C864755
:1010700000C00240001BB70040597307006CDC023F
:1010800040420F0001480421014B18476003002033
:10109000690E0010114A936F9B0813D210665166B7
:1010A000002905D0FFE7FFE7FFE7516F106F70479A
:1010B00004B5002801D00020C04300F0BDFA002193
:1010C00004BDC046F0B5146E556E576F166FFFF72E
:1010D000E5FF1466556657671667F0BD000000D03F
:1010E000132370B51D78012D19D014DD1F48FFF7AB
:1010F000B3FE06001E48FFF7AFFE1E4C80223100F3
:10110000200000F0ABF8022D2DD01B48FFF79CFE0D
:101110001A4B186070BD1A4B164CA364F5E7184BB8
:10112000144C23606360A360E36023616361A36187
:10113000E36123626362A362E36223636363A36385
:10114000E36323646364A364E36423656365A36565
:10115000E36523666366A366E36623676367A36745
:10116000E367A364D1E7064BA364CEE753440000D2
:1011700053460000080500204C3300007008002092
:101180008511001007B5604601880A0A0230DF2A7F
:10119000FAD1C9B2820804D30288408800041043FF
:1011A00000E00068014A5050039007BD0805002088
:1011B000132310B512481C78FFF74EFE0100012CD6
:1011C0000AD003DD80220F4800F048F80E48FFF7F0
:1011D0003BFE0E4B186010BD0A4C5422200000F05C
:1011E0003DF80B4B6365A365E36523666366A36601
:1011F000E36623676367A367E3672362E361E5E769
:1012000053460000080600204C3300007008002000
:101210001512001007B5604601880A0A0230DF2A5D
:10122000FAD1C9B2820804D302884088000410436E
:1012300000E00068014A5050039007BD08060020F6
:1012400001480421014B184770030020690E00106B
:10125000014B1B681847000070030020014B5B68BE
:10126000184700007003002010B5002800D110BD01
:1012700000F014F9FBE7C04610B5094A03001468F2
:1012800084B0002C08D0012200910648524203A9E4
:10129000A047012004B010BD00F04AF90020F9E792
:1012A0003C0800206912001000BEFDE710B5FFF7F2
:1012B000FBFFC04670B5FFF715FE074D074EB54260
:1012C00009D20024013E761BB60808CD98472300BA
:1012D0000134B342F9D170BD941600109C16001071
:1012E000030010B5080011001B68984710BDC046E8
:1012F000F0B5C64600B5437D07000C001600002B74
:1013000046D0002A17DD0B780A2B24D000239846FC
:10131000012E13D001252900635C01350A2B26D04C
:10132000B542F8D1464509DCA419013C23780D3BB0
:101330005A4253413B7580BCB846F0BD4346E01865
:10134000A419F11A013C3B68984723780D3B5A4297
:1013500053413B75EFE7037D002BD7D102210F48A6
:101360003B689847012EDFD001239846D2E7631EE1
:101370005B5C0D2BD4D0884504DA4346C91AE018CB
:101380003B689847022105483B68A8469847C7E74D
:101390000368110020009847CDE7C0467017001081
:1013A000F0B54546DE464E465746E0B583B0914619
:1013B0001C0080460D00FFF7EFFB0023304A121897
:1013C0004B41002B02DA01222E4B52422E490800DB
:1013D0008A4600F039F907006B1C03D1404600F043
:1013E000EBF80500002C27D0284E294B1C68002C58
:1013F00018D04B46002B21D1264B994602E0246998
:10140000002C0FD02368002BF9D04B461B68002B13
:1014100001D09C42F3D120002A004146B047246904
:10142000002CEFD1002F26D1280003B0F0BCBB4622
:10143000B246A946A046F0BD174ED6E7154B9946D1
:101440000A239B4602E02469002CEBD02368002B82
:10145000F9D04B461B68002B01D0A342F3D12A00E0
:1014600041462000B0476B465A462000DA71D91D2C
:101470000122B047E7E7504600F0D6F8D4E7C0466F
:1014800040420F00FFFFFF7F80030020F112001099
:101490003408002038080020E1120010F0B5CE46D4
:1014A000474680B583B06B460600DD1D2870FFF708
:1014B00073FB0023194A12184B41002B02DA012258
:1014C000174B524217490800884600F0BDF8164BEA
:1014D00081461C68002C14D0144F02E02469002CB3
:1014E0000FD02368002BF9D03B68002B01D09C4221
:1014F000F4D1200001222900FFF7FAFE2469002C14
:10150000EFD14B46002B05D1300003B0C0BCB9462B
:10151000B046F0BD404600F087F8F5E740420F00C6
:10152000FFFFFF7F800300203408002038080020E0
:1015300070B5040000F040F801230100050001220D
:101540002000FFF72DFF084B1C68002C06D06368B5
:10155000002B05D098472469002CF8D1280070BDD5
:101560002469002CF3D1F9E73408002010B50248B3
:1015700000F004F810BDC0466808002010B588B01F
:1015800004000D2200216846FFF762FE0D220021B3
:1015900004A8FFF75DFE4B236A466846137004A952
:1015A0000D2200F039F81521082220006944FFF7C8
:1015B00055FE08B010BDC04610B583070AD0030021
:1015C000032102E001330B4205D01A78002AF9D139
:1015D000181A10BD030019680C4A0D4C8A188A436A
:1015E00022420FD15968094A04338A188A43224299
:1015F00008D15968054A04338A188A432242F1D037
:1016000000E001331A78002AFBD1E1E7FFFEFEFE7D
:1016100080808080F8B5C04601B40248844601BC91
:10162000604700BFF501002001B40248844601BCB8
:10163000604700BF5901002001B40248844601BC44
:10164000604700BF2503002001B40248844601BC66
:10165000604700BFC10000200D0F0010390F0010BF
:101660008510001041120010E1100010B11100109F
:10167000AD0F0010550F0010750F0010890F0010EE
:10168000E9040010910F001069080010D50E001039
:0C1690003D040010B10200106D150010A8
:10169C000A2A2A2A2050414E4943202A2A2A0A0083
:1016AC000A000000486172647761726520616C61A8
:1016BC00726D20256420616C726561647920636CA5
:1016CC0061696D6564000000486172642061737328
:1016DC006572740052656C6561736500626F6F743E
:1016EC00325F77323571303830000000322E312EB7
:1016FC00310000007069636F00000000626C696E5D
:10170C006B0000004A756E203235203230323500C5
:10171C0006005250D3F07542E016001006005250ED
:10172C00E182887FE816001006005250ABB360537C
:10173C00F816001006005250BBFF3CB60017001004
:10174C0006005250861C0302081700100600525067
:10175C005422A29D1017001005005250DE65F4684B
:08176C00581A00100D0A0000DC
:101774001C17001028170010341700104017001011
:0C1784004C1700105817001064170010DC
:10179000F0B5C646150000B504001E000268EFF360
:1017A000108172B61368002BFCD0BFF35F8F042347
:1017B000E3562268002B2BDBBFF35F8F0020106005
:1017C00081F31088D02212061278002752B2904678
:1017D0009A420ED1002080BCB846F0BDBFF35F8FA7
:1017E000176081F310882800310000F005F9002807
:1017F000F0D12268EFF3108172B61368002BFCD091
:10180000BFF35F8F237922687F2BE7D9434602E03D
:10181000D0231B061B682371BFF35F8F0023136067
:1018200081F310880120D6E70268EFF3108172B6C9
:101830001368002BFCD0BFF35F8FFF230371036895
:10184000BFF35F8F00221A6081F3108840BF70479A
:1018500010B5084C2378002B0AD18023064807498D
:101860005B051A68C25004338B42FAD101232370FE
:1018700010BDC046780800200807001000010010C5
:1018800010B5014B984710BD09070020034B1A689B
:10189000C0239B009343024A136070470C800140B1
:1018A0000C900140054B1A6880239B005340C022D6
:1018B00092001340024A13607047C0460C800140FA
:1018C0000C9001400023F0B5DE4657464E46454693
:1018D0009A46E0B583B001900E00988A42491B8B6E
:1018E00014009847534681464049988A1B8B984775
:1018F00053463F490500988A1B8B98478046FFF75F
:10190000A7FFC847A847FFF7CDFF251E22D0082311
:10191000C0219C460220490562468B6A1A40184243
:101920003CD0631B002D2CD1002A11D1002C11D0EA
:10193000C0235B059B4602239A46063399465B46C5
:101940004A4657469B6A1A401F423FD0002AF6D0AB
:10195000002C2DD1FFF79AFFC047FFF791FF03B08E
:10196000F0BCBB46B246A946A046F0BD002C2FD124
:10197000C0225205926A914608224F463A40BF075C
:101980002DD50D2B1BD9002AF0D1C0225205926A09
:10199000914608224F463A40BF07F2D4002A04D1AC
:1019A0002B002343002BB7D1D4E72B00002CF9D018
:1019B0000B6E013C3370230001362B43F2E7019F8D
:1019C000013D3B7801370B660197E7E70025E5E726
:1019D000C0235B051B6E013C337001369CE72B0076
:1019E000002ADFD1DCE7C046494600004558000028
:1019F000464300007047C04601B40248844601BC1B
:101A0000604700BF690A00101000000000000000DD
:101A100000000000000000000000000000000000C6
:101A2000880300200000000000000000000000000B
:101A3000503300004C330000543300005233000098
:101A40004D5300004D430000533400004334000068
:081A500000000000000000008E
:04000005100001E9FD
:00000001FF
